:100000000C945E000C9486000C9486000C94860080
:100010000C9486000C9486000C9486000C94860048
:100020000C9486000C9486000C9486000C94860038
:100030000C9486000C9447010C9486000C94860066
:100040000C9459020C9486000C9406050C94380507
:100050000C9486000C9486000C9486000C94860008
:100060000C9486000C948600000000080002010039
:100070000003040700000000000000000102040863
:100080001020408001020408102001020408102002
:10009000040404040404040402020202020203032E
:1000A0000303030300000000250028002B000000CC
:1000B0000000240027002A002401680511241FBE27
:1000C000CFEFD8E0DEBFCDBF11E0A0E0B1E0E8EDBA
:1000D000F1E102C005900D92AC32B107D9F722E0F0
:1000E000ACE2B1E001C01D92A330B207E1F710E02D
:1000F000CCEBD0E004C02297FE010E94E608C83B8A
:10010000D107C9F70E94AC050C94EA080C940000D2
:1001100080912C0190912D019C012F5F3F4F3093D6
:100120002D0120932C01883E934030F160E071E076
:1001300086E691E00E94F90583E491E00E94FC01CB
:100140004AE050E0BC0186E691E00E94BB0664E014
:1001500071E086E691E00E94F9058EE291E00E944E
:10016000FC014AE050E0BC0186E691E00E94C30633
:1001700010922D0110922C0183E491E00E9429023B
:100180008EE291E00C94290226E040E052EC61E01E
:1001900070E086E691E00E94A40483E491E00E946E
:1001A0008F018EE291E00E948F01E1E8F0E080E1B2
:1001B000808310928000A6E8B0E082E19AE7119671
:1001C0009C938E9384E1808321E020935A0180E206
:1001D00093E090935C0180935B0111969C938E93C6
:1001E00081E1808388E890E09093590180935801E1
:1001F00020936F0066E071E086E691E00C940606BD
:1002000068EE73E083E491E00E94F80168EE73E029
:100210008EE291E00E94F80160ED77E080E090E0EE
:100220000E94C60268EB7BE083E491E00E94F80143
:1002300068EB7BE08EE291E00E94F80160ED77E0F0
:1002400080E090E00C94C602CF92EF92FF920F9361
:100250001F93CC24C39484E6E82EF12C08E813E124
:1002600020E233E046E067E083E491E00E946E0123
:10027000C12C20E233E04BE06CE08EE291E00E9482
:100280006E011F910F91FF90EF90CF9008951F92F4
:100290000F920FB60F9211242F933F934F935F93BA
:1002A0006F937F938F939F93AF93BF93EF93FF933E
:1002B000E0915801F09159010995FF91EF91BF919B
:1002C000AF919F918F917F916F915F914F913F91EE
:1002D0002F910F900FBE0F901F901895CF92EF9215
:1002E000FF920F931F93FC0160834183338322832A
:1002F00015830483F782E682C086128611861486EF
:100300001386158616861786108A118A128A138A12
:10031000148A1F910F91FF90EF90CF900895CF9383
:10032000DF93EC0161E088810E94520361E08981E2
:10033000DF91CF910C945203CF93DF93EC0161E0F6
:1003400089810E948B0360E08981DF91CF910C94B9
:100350008B0321E0FC013085631320E0622FFC0158
:1003600080810C948B03CF92DF92EF92FF920F93D8
:100370001F93CF93DF93EC018B01612F6095661F74
:100380006627661F0E94A901C80117FF03C0919547
:10039000819591092C813D81BC012817390708F40A
:1003A000B90180E090E00E94A9076B017C016E8199
:1003B0007F8180E090E00E94A9079B01AC01C7010A
:1003C000B6010E945F0820E034E244E759E40E944D
:1003D00041076D877E878F87988B09871A87DF9102
:1003E000CF911F910F91FF90EF90DF90CF900895E4
:1003F000FC01748763870895CF93DF93EC014B85ED
:100400005C8529853A85CA01821B930B97FF03C03F
:10041000919581959109893C910514F088EC90E0C3
:10042000421753071CF041E050E002C04FEF5FEF6E
:10043000849FB001859F700D949F700D1124620FF1
:10044000731FCE010E94B30189859A85DF91CF91F8
:100450000895CF93DF93EC012D853E854F85588914
:1004600069897A898B899C890E94DD06698B7A8BE0
:100470008B8B9C8B20E030E040E85FE30E945B08C0
:1004800087FD13C0CE010E949C0120E030E040E8CF
:100490005FE369897A898B899C890E94DC06698B74
:1004A0007A8B8B8B9C8B81E001C080E0DF91CF91B8
:1004B00008951F920F920FB60F9211242F933F931E
:1004C0008F939F93AF93BF9380915E0190915F0153
:1004D000A0916001B091610130915D0123E0230F93
:1004E0002D3720F40196A11DB11D05C026E8230F6C
:1004F0000296A11DB11D20935D0180935E01909332
:100500005F01A0936001B0936101809162019091BD
:100510006301A0916401B09165010196A11DB11D17
:100520008093620190936301A0936401B09365018D
:10053000BF91AF919F918F913F912F910F900FBEDF
:100540000F901F9018953FB7F89480916201909199
:100550006301A0916401B091650126B5A89B05C017
:100560002F3F19F00196A11DB11D3FBF6627782FBF
:10057000892F9A2F620F711D811D911D42E0660F18
:10058000771F881F991F4A95D1F70895CF92DF9260
:10059000EF92FF92CF93DF936B017C010E94A30245
:1005A000EB01C114D104E104F10489F00E94DB06DF
:1005B0000E94A3026C1B7D0B683E734090F381E0A8
:1005C000C81AD108E108F108C851DC4FEACFDF9121
:1005D000CF91FF90EF90DF90CF900895789484B5FD
:1005E000826084BD84B5816084BD85B5826085BD2F
:1005F00085B5816085BDEEE6F0E080818160808315
:10060000E1E8F0E0108280818260808380818160F7
:100610008083E0E8F0E0808181608083E1EBF0E0BE
:10062000808184608083E0EBF0E080818160808362
:10063000EAE7F0E08081846080838081826080834B
:100640008081816080838081806880831092C10076
:100650000895833081F028F4813099F08230A1F040
:1006600008958730A9F08830B9F08430D1F48091B2
:1006700080008F7D03C0809180008F778093800001
:10068000089584B58F7702C084B58F7D84BD0895A9
:100690008091B0008F7703C08091B0008F7D8093F0
:1006A000B0000895CF93DF9390E0FC01E458FF4F32
:1006B0002491FC01E057FF4F8491882349F190E099
:1006C000880F991FFC01E255FF4FA591B4918C55FD
:1006D0009F4FFC01C591D4919FB7611108C0F89458
:1006E0008C91209582238C93888182230AC062306A
:1006F00051F4F8948C91322F309583238C93888118
:10070000822B888304C0F8948C91822B8C939FBF9A
:10071000DF91CF9108950F931F93CF93DF931F9293
:10072000CDB7DEB7282F30E0F901E859FF4F8491AB
:10073000F901E458FF4F1491F901E057FF4F04917C
:100740000023C9F0882321F069830E94290369816D
:10075000E02FF0E0EE0FFF1FEC55FF4FA591B49195
:100760009FB7F8948C91611103C01095812301C04B
:10077000812B8C939FBF0F90DF91CF911F910F9191
:100780000895FC01818D228D90E0805C9F4F821B3B
:1007900091098F7399270895FC01918D828D981787
:1007A00031F0828DE80FF11D858D90E008958FEF77
:1007B0009FEF0895FC01918D828D981761F0828DD5
:1007C000DF01A80FB11D5D968C91928D9F5F9F7385
:1007D000928F90E008958FEF9FEF08958EE595E05A
:1007E000892B49F080E090E0892B29F00E945E057A
:1007F00081110C9400000895FC01848DDF01A80F85
:10080000B11DA35ABF4F2C91848D90E001968F7338
:100810009927848FA689B7892C93A089B1898C9157
:1008200080648C93938D848D981306C00288F3891D
:10083000E02D80818F7D80830895CF93DF93EC013D
:10084000888D8823C9F0EA89FB89808185FD05C0F0
:10085000A889B9898C9186FD0FC00FB607FCF5CF2A
:10086000808185FFF2CFA889B9898C9185FFEDCF72
:10087000CE010E94FC03E7CFDF91CF910895CF9284
:10088000DF92FF920F931F93CF93DF931F92CDB709
:10089000DEB76C0181E0D60158968C9358975B9631
:1008A0009C915B975C968C915C97981307C05096CF
:1008B000ED91FC915197808185FD2EC0F601038D4D
:1008C00010E00F5F1F4F0F731127F02EF601848D7C
:1008D000F81211C00FB607FCF9CFD6015096ED9172
:1008E000FC915197808185FFF1CFC60169830E94F9
:1008F000FC036981EBCF838DE80FF11DE35AFF4FB5
:100900006083D6015B960C935B975296ED91FC91B8
:100910005397808180620CC0D6015696ED91FC9170
:10092000579760835096ED91FC9151978081806438
:10093000808381E090E00F90DF91CF911F910F9124
:10094000FF90DF90CF900895BF92CF92DF92EF9209
:10095000FF92CF93DF93EC016A017B01B22EE8890D
:10096000F98982E08083411581EE580761057105A0
:10097000A1F060E079E08DE390E0A70196010E948C
:10098000C2082150310941095109569547953795BB
:100990002795211580E1380798F0E889F9891082B8
:1009A00060E874E88EE190E0A70196010E94C20819
:1009B0002150310941095109569547953795279599
:1009C000EC85FD853083EE85FF852083188EEC89CC
:1009D000FD89B082EA89FB89808180618083EA8910
:1009E000FB89808188608083EA89FB8980818068B7
:1009F0008083EA89FB8980818F7D8083DF91CF911D
:100A0000FF90EF90DF90CF90BF9008951F920F92CC
:100A10000FB60F9211242F938F939F93EF93FF9311
:100A2000E0917601F09177018081E0917C01F09175
:100A30007D0182FD12C0908180917F018F5F8F7355
:100A400020918001821751F0E0917F01F0E0EA5996
:100A5000FE4F958F80937F0101C08081FF91EF91C0
:100A60009F918F912F910F900FBE0F901F9018950F
:100A70001F920F920FB60F9211242F933F934F9313
:100A80005F936F937F938F939F93AF93BF93EF93F6
:100A9000FF9386E691E00E94FC03FF91EF91BF91E6
:100AA000AF919F918F917F916F915F914F913F9106
:100AB0002F910F900FBE0F901F90189586E691E032
:100AC0000E94C10321E0892B09F420E0822F0895C0
:100AD000109269011092680188EE93E0A0E0B0E006
:100AE00080936A0190936B01A0936C01B0936D01A8
:100AF0008FE091E0909367018093660185EC90E030
:100B0000909373018093720184EC90E0909375014F
:100B10008093740180EC90E090937701809376014C
:100B200081EC90E0909379018093780182EC90E0E1
:100B300090937B0180937A0186EC90E090937D0105
:100B400080937C0110927F011092800110928101AC
:100B500010928201089508950E94EE020E94AB0552
:100B60000E94C400CEEED3E00E9400012097E1F382
:100B70000E94EE03F9CFCF92DF92EF92FF920F9394
:100B80001F93CF93DF937C016A01EB0100E010E03B
:100B90000C151D0571F06991D701ED91FC91019043
:100BA000F081E02DC7010995892B19F00F5F1F4FC8
:100BB000EFCFC801DF91CF911F910F91FF90EF9080
:100BC000DF90CF9008956115710581F0DB010D90E4
:100BD0000020E9F7AD0141505109461B570BDC01DC
:100BE000ED91FC910280F381E02D099480E090E08A
:100BF00008950C94E305DC01ED91FC910190F081E6
:100C0000E02D09946BE171E00C94E3050F931F93C1
:100C1000CF93DF93EC010E94E3058C01CE010E948B
:100C20000206800F911FDF91CF911F910F910895C0
:100C30008F929F92AF92BF92CF92DF92EF92FF92EC
:100C40000F931F93CF93DF93CDB7DEB7A1970FB666
:100C5000F894DEBF0FBECDBF7C01C42EE52FCB01C3
:100C6000D22E19A221E02D1510F02AE0D22E8E01ED
:100C70000F5D1F4F8D2C912CA12CB12C6C2D7E2F34
:100C8000A50194010E94C2088C2DD29E80191124C6
:100C9000015011098A3014F4805D01C0895CF801AB
:100CA0008083211531054105510521F0C22EE32F26
:100CB000CA01E4CFB801C7010E94E305A1960FB6AF
:100CC000F894DEBF0FBECDBFDF91CF911F910F9182
:100CD000FF90EF90DF90CF90BF90AF909F908F905C
:100CE0000895CF92DF92EF92FF920F931F93CF93CD
:100CF000DF93EC016A017B012115310579F4E8816C
:100D0000F9810190F081E02D642FDF91CF911F9147
:100D10000F91FF90EF90DF90CF9009942A3031052A
:100D2000E9F477FF1AC06DE20E94FB058C014427AD
:100D30005527BA014C195D096E097F092AE0CE01D9
:100D40000E941806800F911FDF91CF911F910F9184
:100D5000FF90EF90DF90CF9008952AE0B701A601B1
:100D6000CE01DF91CF911F910F91FF90EF90DF9017
:100D7000CF900C9418069A01AB01662757FD609539
:100D8000762F0C9471060F931F93CF93DF93EC0192
:100D90009A01AB01662757FD6095762F0E94710678
:100DA0008C01CE010E940206800F911FDF91CF912E
:100DB0001F910F91089508955058BB27AA270ED070
:100DC00040C131D130F036D120F031F49F3F11F4E1
:100DD0001EF426C10EF4E095E7FB1CC1E92F42D1B9
:100DE00080F3BA17620773078407950718F071F448
:100DF0009EF55AC10EF4E0950B2EBA2FA02D0B01D3
:100E0000B90190010C01CA01A0011124FF27591B4F
:100E100099F0593F50F4503E68F11A16F040A22F55
:100E2000232F342F4427585FF3CF469537952795C6
:100E3000A795F0405395C9F77EF41F16BA0B620BC5
:100E4000730B840BBAF09150A1F0FF0FBB1F661F0C
:100E5000771F881FC2F70EC0BA0F621F731F841F4F
:100E600048F4879577956795B795F7959E3F08F075
:100E7000B3CF9395880F08F09927EE0F9795879534
:100E800008950CD0DEC0D6D040F0CDD030F021F4A3
:100E90005F3F19F0BFC0511108C1C2C0E3D098F341
:100EA0009923C9F35523B1F3951B550BBB27AA27EB
:100EB00062177307840738F09F5F5F4F220F331F5D
:100EC000441FAA1FA9F333D00E2E3AF0E0E830D029
:100ED00091505040E695001CCAF729D0FE2F27D02C
:100EE000660F771F881FBB1F261737074807AB07FA
:100EF000B0E809F0BB0B802DBF01FF2793585F4F6F
:100F00002AF09E3F510568F085C0CFC05F3FECF3EB
:100F1000983EDCF3869577956795B795F7959F5F33
:100F2000C9F7880F911D9695879597F90895E1E087
:100F3000660F771F881FBB1F621773078407BA07E6
:100F400020F0621B730B840BBA0BEE1F88F7E09541
:100F50000895E89409C097FB3EF4909580957095AC
:100F600061957F4F8F4F9F4F9923A9F0F92F96E9F5
:100F7000BB279395F695879577956795B795F1116A
:100F8000F8CFFAF4BB0F11F460FF1BC06F5F7F4F07
:100F90008F4F9F4F16C0882311F096E911C0772319
:100FA00021F09EE8872F762F05C0662371F096E822
:100FB000862F70E060E02AF09A95660F771F881FF1
:100FC000DAF7880F9695879597F90895990F000895
:100FD000550FAA0BE0E8FEEF16161706E807F9070B
:100FE000C0F012161306E407F50798F0621B730BA6
:100FF000840B950B39F40A2661F0232B242B252B27
:1010000021F408950A2609F4A140A6958FEF811DC9
:10101000811D089597F99F6780E870E060E008956A
:101020009FEF80EC089500240A9416161706180600
:101030000906089500240A941216130614060506DC
:101040000895092E0394000C11F4882352F0BB0F6D
:1010500040F4BF2B11F460FF04C06F5F7F4F8F4FD0
:101060009F4F089557FD9058440F551F59F05F3F0B
:1010700071F04795880F97FB991F61F09F3F79F0BA
:1010800087950895121613061406551FF2CF46953C
:10109000F1DF08C0161617061806991FF1CF8695BE
:1010A0007105610508940895E894BB2766277727A2
:1010B000CB0197F908958ADF08F48FEF08950BD0DC
:1010C000C0CFB1DF28F0B6DF18F0952309F0A2CF2A
:1010D000A7CF1124EACFC6DFA0F3959FD1F3950FD8
:1010E00050E0551F629FF001729FBB27F00DB11DAC
:1010F000639FAA27F00DB11DAA1F649F6627B00D3C
:10110000A11D661F829F2227B00DA11D621F739F24
:10111000B00DA11D621F839FA00D611D221F749F32
:101120003327A00D611D231F849F600D211D822F79
:10113000762F6A2F11249F5750408AF0E1F08823C0
:101140004AF0EE0FFF1FBB1F661F771F881F9150CD
:101150005040A9F79E3F510570F05CCFA6CF5F3F8E
:10116000ECF3983EDCF3869577956795B795F79500
:10117000E7959F5FC1F7FE2B880F911D9695879588
:1011800097F90895A1E21A2EAA1BBB1BFD010DC001
:10119000AA1FBB1FEE1FFF1FA217B307E407F50727
:1011A00020F0A21BB30BE40BF50B661F771F881F03
:1011B000991F1A9469F760957095809590959B0199
:1011C000AC01BD01CF010895EE0FFF1F0590F49112
:0811D000E02D0994F894FFCF13
:1011D800535045442C00494E495400000000003F3C
:1011E80004BB05C103DA03CC031D040D0A006E61BC
:0C11F8006E00696E66006F7666002E00C7
:00000001FF
