:100000000C945E000C9486000C9486000C94860080
:100010000C9486000C9486000C9486000C94860048
:100020000C9486000C9486000C9486000C94860038
:100030000C9486000C9471010C9486000C9486003C
:100040000C9447030C9486000C9412060C944406FE
:100050000C9486000C9486000C9486000C94860008
:100060000C9486000C948600000000080002010039
:100070000003040700000000000000000102040863
:100080001020408001020408102001020408102002
:10009000040404040404040402020202020203032E
:1000A0000303030300000000250028002B000000CC
:1000B0000000240027002A004E01740611241FBEF0
:1000C000CFEFD8E0DEBFCDBF11E0A0E0B1E0E4E0CB
:1000D000F4E102C005900D92A439B107D9F722E0EE
:1000E000A4E9B1E001C01D92A23AB207E1F710E025
:1000F000CCEBD0E004C02297FE010E94FC09C83B73
:10010000D107C9F70E94B8060C94000A0C940000AD
:1001100080919401909195019C012F5F3F4F309306
:10012000950120939401883E934030F160E071E0A6
:1001300085E092E00E9405078BEA91E00E94EA02C6
:100140004AE050E0BC0185E092E00E94BD0764E017
:1001500071E085E092E00E94050786E991E00E9447
:10016000EA024AE050E0BC0185E092E00E94C50747
:1001700010929501109294018BEA91E00E9417036E
:1001800086E991E00C94170340ED57E060E070E0E1
:1001900085EC91E00E94C30120E032EC41E050E0A8
:1001A00065E072E085EC91E00E94D60185EC91E07B
:1001B0000E94C00166E071E08091F6019091F70124
:1001C0000E9405076AE070E080E090E00E94C003B2
:1001D00041E060E085EC91E00E94410226E040E0D1
:1001E00052EC61E070E085E092E00E94B0058BEA9D
:1001F00091E00E947D0286E991E00E947D02E1E8A3
:10020000F0E080E1808310928000A6E8B0E082E117
:100210009AE711969C938E9384E1808321E020934A
:10022000C20180E293E09093C4018093C3011196D0
:100230009C938E9381E1808388E890E09093C10144
:100240008093C00120936F0068E171E085E092E047
:100250000C94120760E070E08BEA91E00E94E602E5
:1002600068EB7BE086E991E00E94E60268EB7BE0C8
:1002700080E090E00E94C00368EB7BE08BEA91E0B5
:100280000E94E60260E070E086E991E00E94E602EA
:1002900068EB7BE080E090E00C94C003CF92EF929B
:1002A000FF920F931F93CC24C39484E6E82EF12C85
:1002B00008E813E120E233E046E067E08BEA91E0F2
:1002C0000E945C02C12C20E233E04BE06CE086E946
:1002D00091E00E945C021F910F91FF90EF90CF90F0
:1002E00008951F920F920FB60F9211242F933F93F0
:1002F0004F935F936F937F938F939F93AF93BF932E
:10030000EF93FF93E091C001F091C1010995FF9136
:10031000EF91BF91AF919F918F917F916F915F917D
:100320004F913F912F910F900FBE0F901F901895F6
:100330000F931F93CF93DF93EC01662359F00E9434
:10034000910369837A838B839C83DF91CF911F9183
:100350000F9108950E94910309811A812B813C819C
:10036000601B710B820B930B623371058105910544
:1003700030F763E070E080E090E00E94C003EACFD5
:1003800060E00C949801FC0113AA14AA15AA16AAFD
:100390001182128213821482411551056105710583
:1003A00021F0CB01BA010C94C0030895FB01BA01FE
:1003B000A901DC01D296FC93EE93D19726E0CF0100
:1003C0000C94B0051F93CF93DF93EC01162F6DE1D2
:1003D00071E089A99AA90E9405074AE050E0612FBF
:1003E00089A99AA90E94EA0764E271E089A99AA9F9
:1003F0000E94050762E370E080E090E0DF91CF911A
:100400001F910C94C0031F93CF93DF93EC01162F21
:100410008D81882389F189A99AA9DC01ED91FC914C
:100420000480F581E02D0995892BA9F307C02637B3
:10043000310519F12835310509F41D8289A99AA9D8
:10044000DC01ED91FC910480F581E02D09951816F1
:10045000190694F489A99AA9DC01ED91FC91068012
:10046000F781E02D09959C01332723363105F9F6F4
:10047000612FCE010E94E20183E6DF91CF911F91AF
:1004800008950F931F93CF93DF931F92CDB7DEB7DD
:100490008C01662349F081E0F801858360E0C801A2
:1004A00049830E9403024981F80145830F90DF913F
:1004B000CF911F910F910895CF92EF92FF920F93DA
:1004C0001F93FC016083418333832283158304835C
:1004D000F782E682C08612861186148613861586F8
:1004E00016861786108A118A128A138A148A1F9117
:1004F0000F91FF90EF90CF900895CF93DF93EC0191
:1005000061E088810E945E0461E08981DF91CF9182
:100510000C945E04CF93DF93EC0161E089810E942B
:10052000970460E08981DF91CF910C94970421E0DA
:10053000FC013085631320E0622FFC0180810C9464
:100540009704CF92DF92EF92FF920F931F93CF9376
:10055000DF93EC018B01612F6095661F6627661F94
:100560000E949702C80117FF03C0919581959109D8
:100570002C813D81BC012817390708F4B90180E0BE
:1005800090E00E94BF086B017C016E817F8180E05A
:1005900090E00E94BF089B01AC01C701B6010E9418
:1005A000750920E034E244E759E40E9457086D875A
:1005B0007E878F87988B09871A87DF91CF911F914C
:1005C0000F91FF90EF90DF90CF900895FC0174871A
:1005D00063870895CF93DF93EC014B855C85298574
:1005E0003A85CA01821B930B97FF03C091958195B1
:1005F0009109893C910514F088EC90E0421753076B
:100600001CF041E050E002C04FEF5FEF849FB0016B
:10061000859F700D949F700D1124620F731FCE0182
:100620000E94A10289859A85DF91CF910895CF9389
:10063000DF93EC012D853E854F85588969897A893C
:100640008B899C890E94F307698B7A8B8B8B9C8B9F
:1006500020E030E040E85FE30E94710987FD13C0AD
:10066000CE010E948A0220E030E040E85FE3698921
:100670007A898B899C890E94F207698B7A8B8B8B94
:100680009C8B81E001C080E0DF91CF9108951F92A3
:100690000F920FB60F9211242F933F938F939F9336
:1006A000AF93BF938091FD019091FE01A091FF0156
:1006B000B09100023091FC0123E0230F2D3720F48C
:1006C0000196A11DB11D05C026E8230F0296A11DAC
:1006D000B11D2093FC018093FD019093FE01A09336
:1006E000FF01B09300028091010290910202A0915B
:1006F0000302B09104020196A11DB11D8093010275
:1007000090930202A0930302B0930402BF91AF91B1
:100710009F918F913F912F910F900FBE0F901F903F
:1007200018952FB7F8946091FD017091FE018091AA
:10073000FF01909100022FBF08953FB7F894809178
:10074000010290910202A0910302B091040226B529
:10075000A89B05C02F3F19F00196A11DB11D3FBFF9
:100760006627782F892F9A2F620F711D811D911D89
:1007700042E0660F771F881F991F4A95D1F70895A9
:100780008F929F92AF92BF92CF92DF92EF92FF92A1
:100790006B017C010E949D034B015C01C114D104DB
:1007A000E104F104F1F00E94F1070E949D03681931
:1007B00079098A099B09683E73408105910570F3A8
:1007C00021E0C21AD108E108F10888EE880E83E022
:1007D000981EA11CB11CC114D104E104F10429F735
:1007E000DDCFFF90EF90DF90CF90BF90AF909F90C4
:1007F0008F900895789484B5826084BD84B58160BB
:1008000084BD85B5826085BD85B5816085BDEEE618
:10081000F0E0808181608083E1E8F0E010828081F7
:1008200082608083808181608083E0E8F0E0808165
:1008300081608083E1EBF0E0808184608083E0EB85
:10084000F0E0808181608083EAE7F0E0808184606D
:1008500080838081826080838081816080838081C9
:10086000806880831092C1000895833081F028F45D
:10087000813099F08230A1F008958730A9F0883056
:10088000B9F08430D1F4809180008F7D03C08091D5
:1008900080008F7780938000089584B58F7702C0A1
:1008A00084B58F7D84BD08958091B0008F7703C09B
:1008B0008091B0008F7D8093B0000895CF93DF9337
:1008C00090E0FC01E458FF4F2491FC01E057FF4FFA
:1008D0008491882349F190E0880F991FFC01E2552B
:1008E000FF4FA591B4918C559F4FFC01C591D491B8
:1008F0009FB7611108C0F8948C91209582238C9346
:10090000888182230AC0623051F4F8948C91322F8E
:10091000309583238C938881822B888304C0F8943C
:100920008C91822B8C939FBFDF91CF9108950F9371
:100930001F93CF93DF931F92CDB7DEB7282F30E000
:10094000F901E859FF4F8491F901E458FF4F1491E0
:10095000F901E057FF4F04910023C9F0882321F0EB
:1009600069830E9435046981E02FF0E0EE0FFF1FDC
:10097000EC55FF4FA591B4919FB7F8948C916111FC
:1009800003C01095812301C0812B8C939FBF0F90D2
:10099000DF91CF911F910F910895FC01818D228DE0
:1009A00090E0805C9F4F821B91098F739927089577
:1009B000FC01918D828D981731F0828DE80FF11D29
:1009C000858D90E008958FEF9FEF0895FC01918D44
:1009D000828D981761F0828DDF01A80FB11D5D96A1
:1009E0008C91928D9F5F9F73928F90E008958FEF0F
:1009F0009FEF08958AE696E0892B49F080E090E029
:100A0000892B29F00E946A0681110C940000089538
:100A1000FC01848DDF01A80FB11DA35ABF4F2C919B
:100A2000848D90E001968F739927848FA689B7896A
:100A30002C93A089B1898C9180648C93938D848D43
:100A4000981306C00288F389E02D80818F7D808312
:100A50000895CF93DF93EC01888D8823C9F0EA894C
:100A6000FB89808185FD05C0A889B9898C9186FDA7
:100A70000FC00FB607FCF5CF808185FFF2CFA889A4
:100A8000B9898C9185FFEDCFCE010E940805E7CF93
:100A9000DF91CF910895CF92DF92FF920F931F9332
:100AA000CF93DF931F92CDB7DEB76C0181E0D60103
:100AB00058968C9358975B969C915B975C968C911B
:100AC0005C97981307C05096ED91FC9151978081E7
:100AD00085FD2EC0F601038D10E00F5F1F4F0F73D1
:100AE0001127F02EF601848DF81211C00FB607FC05
:100AF000F9CFD6015096ED91FC915197808185FFF9
:100B0000F1CFC60169830E9408056981EBCF838D0F
:100B1000E80FF11DE35AFF4F6083D6015B960C93FB
:100B20005B975296ED91FC915397808180620CC047
:100B3000D6015696ED91FC91579760835096ED91B2
:100B4000FC91519780818064808381E090E00F90D8
:100B5000DF91CF911F910F91FF90DF90CF9008957B
:100B6000BF92CF92DF92EF92FF92CF93DF93EC018F
:100B70006A017B01B22EE889F98982E08083411500
:100B800081EE580761057105A1F060E079E08DE321
:100B900090E0A70196010E94D8092150310941092E
:100BA00051095695479537952795211580E13807C6
:100BB00098F0E889F989108260E874E88EE190E0A5
:100BC000A70196010E94D809215031094109510914
:100BD0005695479537952795EC85FD853083EE85AD
:100BE000FF852083188EEC89FD89B082EA89FB8914
:100BF000808180618083EA89FB898081886080832D
:100C0000EA89FB89808180688083EA89FB89808109
:100C10008F7D8083DF91CF91FF90EF90DF90CF9019
:100C2000BF9008951F920F920FB60F9211242F9329
:100C30008F939F93EF93FF93E0911502F09116022B
:100C40008081E0911B02F0911C0282FD12C0908114
:100C500080911E028F5F8F7320911F02821751F0C7
:100C6000E0911E02F0E0EB5FFD4F958F80931E0236
:100C700001C08081FF91EF919F918F912F910F90F3
:100C80000FBE0F901F9018951F920F920FB60F92E4
:100C900011242F933F934F935F936F937F938F9381
:100CA0009F93AF93BF93EF93FF9385E092E00E94F1
:100CB0000805FF91EF91BF91AF919F918F917F9127
:100CC0006F915F914F913F912F910F900FBE0F90B9
:100CD0001F90189585E092E00E94CD0421E0892BB9
:100CE00009F420E0822F0895109208021092070262
:100CF00088EE93E0A0E0B0E08093090290930A02AE
:100D0000A0930B02B0930C0289E791E09093060246
:100D10008093050285EC90E090931202809311027B
:100D200084EC90E0909314028093130280EC90E0A6
:100D3000909316028093150281EC90E09093180234
:100D40008093170282EC90E090931A02809319022C
:100D500086EC90E090931C0280931B0210921E027E
:100D600010921F02109220021092210208950895FD
:100D70000E94FA030E94B7060E94C400CAEFD4E0A2
:100D80000E942A012097E1F30E94FA04F9CFCF9242
:100D9000DF92EF92FF920F931F93CF93DF937C012B
:100DA0006A01EB0100E010E00C151D0571F069917E
:100DB000D701ED91FC910190F081E02DC7010995DB
:100DC000892B19F00F5F1F4FEFCFC801DF91CF9133
:100DD0001F910F91FF90EF90DF90CF9008956115D4
:100DE000710581F0DB010D900020E9F7AD01415064
:100DF0005109461B570BDC01ED91FC910280F381F8
:100E0000E02D099480E090E008950C94EF06DC0159
:100E1000ED91FC910190F081E02D09946AE271E07E
:100E20000C94EF060F931F93CF93DF93EC010E9476
:100E3000EF068C01CE010E940E07800F911FDF91FB
:100E4000CF911F910F9108958F929F92AF92BF9271
:100E5000DF92EF92FF920F931F93CF93DF93CDB763
:100E6000DEB7A1970FB6F894DEBF0FBECDBF7C01F1
:100E7000F42FD52ECB0119A2223008F42AE08E01DE
:100E80000F5D1F4F822E912CA12CB12C6F2F7D2D29
:100E9000A50194010E94D809F22FD32ECA01015056
:100EA00011096A3014F4E0E301C0E7E3E60FD8016A
:100EB000EC93232B242B252B49F7B801C7010E9463
:100EC000EF06A1960FB6F894DEBF0FBECDBFDF913F
:100ED000CF911F910F91FF90EF90DF90BF90AF9057
:100EE0009F908F900895CF92DF92EF92FF920F9391
:100EF0001F93CF93DF93EC016A017B01211531052C
:100F000079F4E881F9810190F081E02D642FDF917F
:100F1000CF911F910F91FF90EF90DF90CF900994A8
:100F20002A303105E9F477FF1AC06DE20E94070705
:100F30008C0144275527BA014C195D096E097F09B8
:100F40002AE0CE010E942407800F911FDF91CF91EC
:100F50001F910F91FF90EF90DF90CF9008952AE0BE
:100F6000B701A601CE01DF91CF911F910F91FF90A4
:100F7000EF90DF90CF900C9424079A01AB01662785
:100F800057FD6095762F0C9473070F931F93CF93A3
:100F9000DF93EC019A01AB01662757FD6095762F30
:100FA0000E9473078C01CE010E940E07800F911FD3
:100FB000DF91CF911F910F9108952115310541F4D3
:100FC000DC01ED91FC910190F081E02D642F0994FA
:100FD0000C9424079A01462F50E060E070E00C94D6
:100FE000DD0708955058BB27AA270ED040C131D144
:100FF00030F036D120F031F49F3F11F41EF426C1B9
:101000000EF4E095E7FB1CC1E92F42D180F3BA173B
:10101000620773078407950718F071F49EF55AC1AB
:101020000EF4E0950B2EBA2FA02D0B01B901900103
:101030000C01CA01A0011124FF27591B99F0593F47
:1010400050F4503E68F11A16F040A22F232F342F8F
:101050004427585FF3CF469537952795A795F040DD
:101060005395C9F77EF41F16BA0B620B730B840BF2
:10107000BAF09150A1F0FF0FBB1F661F771F881FAA
:10108000C2F70EC0BA0F621F731F841F48F4879502
:1010900077956795B795F7959E3F08F0B3CF9395F1
:1010A000880F08F09927EE0F9795879508950CD033
:1010B000DEC0D6D040F0CDD030F021F45F3F19F043
:1010C000BFC0511108C1C2C0E3D098F39923C9F33E
:1010D0005523B1F3951B550BBB27AA27621773073E
:1010E000840738F09F5F5F4F220F331F441FAA1FF2
:1010F000A9F333D00E2E3AF0E0E830D091505040B2
:10110000E695001CCAF729D0FE2F27D0660F771F5F
:10111000881FBB1F261737074807AB07B0E809F041
:10112000BB0B802DBF01FF2793585F4F2AF09E3FD6
:10113000510568F085C0CFC05F3FECF3983EDCF30B
:10114000869577956795B795F7959F5FC9F7880F4F
:10115000911D9695879597F90895E1E0660F771FA1
:10116000881FBB1F621773078407BA0720F0621B32
:10117000730B840BBA0BEE1F88F7E0950895E89483
:1011800009C097FB3EF490958095709561957F4FCF
:101190008F4F9F4F9923A9F0F92F96E9BB2793957D
:1011A000F695879577956795B795F111F8CFFAF48D
:1011B000BB0F11F460FF1BC06F5F7F4F8F4F9F4FBE
:1011C00016C0882311F096E911C0772321F09EE81C
:1011D000872F762F05C0662371F096E8862F70E082
:1011E00060E02AF09A95660F771F881FDAF7880F5C
:1011F0009695879597F90895990F0008550FAA0BB2
:10120000E0E8FEEF16161706E807F907C0F0121619
:101210001306E407F50798F0621B730B840B950B1C
:1012200039F40A2661F0232B242B252B21F4089571
:101230000A2609F4A140A6958FEF811D811D08950E
:1012400097F99F6780E870E060E008959FEF80EC79
:10125000089500240A94161617061806090608951C
:1012600000240A9412161306140605060895092E82
:101270000394000C11F4882352F0BB0F40F4BF2BF1
:1012800011F460FF04C06F5F7F4F8F4F9F4F089531
:1012900057FD9058440F551F59F05F3F71F0479527
:1012A000880F97FB991F61F09F3F79F0879508950C
:1012B000121613061406551FF2CF4695F1DF08C02B
:1012C000161617061806991FF1CF86957105610548
:1012D00008940895E894BB2766277727CB0197F9F0
:1012E00008958ADF08F48FEF08950BD0C0CFB1DFE7
:1012F00028F0B6DF18F0952309F0A2CFA7CF11246C
:10130000EACFC6DFA0F3959FD1F3950F50E0551FAC
:10131000629FF001729FBB27F00DB11D639FAA274A
:10132000F00DB11DAA1F649F6627B00DA11D661F99
:10133000829F2227B00DA11D621F739FB00DA11DBA
:10134000621F839FA00D611D221F749F3327A00D74
:10135000611D231F849F600D211D822F762F6A2F10
:1013600011249F5750408AF0E1F088234AF0EE0F95
:10137000FF1FBB1F661F771F881F91505040A9F7A2
:101380009E3F510570F05CCFA6CF5F3FECF3983ED7
:10139000DCF3869577956795B795F795E7959F5F09
:1013A000C1F7FE2B880F911D9695879597F90895A3
:1013B000A1E21A2EAA1BBB1BFD010DC0AA1FBB1F59
:1013C000EE1FFF1FA217B307E407F50720F0A21BCB
:1013D000B30BE40BF50B661F771F881F991F1A9438
:1013E00069F760957095809590959B01AC01BD0162
:1013F000CF010895EE0FFF1F0590F491E02D0994A1
:04140000F894FFCF8E
:10140400535045442C00564D4450565F317C315F57
:10141400564D4450560D0A00494E495400564D4409
:1014240050435F005F564D4450430D0A00457272AD
:101434006F723A20417474656D707420746F2073F8
:101444006574206120726561642D6F6E6C792076FD
:1014540061726961626C65206F72206461746120DD
:1014640074797065206E6F7420737570706F727408
:1014740065640D0A00000000004B05C706CD04E6B4
:1014840004D80429056E616E00696E66006F766685
:04149400002E000026
:00000001FF
