:100000000C945F000C9487000C9487000C9487007C
:100010000C9487000C9487000C9487000C94870044
:100020000C9487000C9487000C9487000C94870034
:100030000C9487000C94D5010C9487000C948700D5
:100040000C94AB030C9487000C9476060C94A806D1
:100050000C9487000C9487000C9487000C94870004
:100060000C9487000C948700000000080002010037
:100070000003040700000000000000000102040863
:100080001020408001020408102001020408102002
:10009000040404040404040402020202020203032E
:1000A0000303030300000000250028002B000000CC
:1000B0000000240027002A005101D80685011124E0
:1000C0001FBECFEFD8E0DEBFCDBF11E0A0E0B1E0B2
:1000D000E6EEFBE102C005900D92AE39B107D9F70B
:1000E00022E0AEE9B1E001C01D92A43CB207E1F705
:1000F00010E0CCEBD0E004C02297FE010E94650B1B
:10010000C83BD107C9F70E941C070C94E60D0C945C
:1001100000008091B2019091B3019C012F5F3F4F8D
:100120003093B3012093B201883E934030F166E0F2
:1001300071E083E292E00E94690789EC91E00E94FD
:100140004E034AE050E0BC0183E292E00E942108A5
:100150006AE071E083E292E00E94690784EB91E03B
:100160000E944E034AE050E0BC0183E292E00E940C
:1001700029081092B3011092B20189EC91E00E941B
:100180007B0384EB91E00C947B038EE991E00E9469
:10019000550884EA91E00E9455088AEA91E00C949F
:1001A000550840ED57E060E070E083EE91E00E947A
:1001B000270220E032EC41E050E063E272E083EE9F
:1001C00091E00E943A0283EE91E00E9424026CE0EA
:1001D00071E080911402909115020E9469076AE013
:1001E00070E080E090E00E94240441E060E083EE53
:1001F00091E00E94A50226E040E052EC61E070E050
:1002000083E292E00E94140689EC91E00E94E102F0
:1002100084EB91E00E94E102E1E8F0E080E180837C
:1002200010928000A6E8B0E082E19AE711969C93D4
:100230008E9384E1808321E02093E00180E293E0CB
:100240009093E2018093E10111969C938E9381E15A
:10025000808389E890E09093DF018093DE01209312
:100260006F006EE171E083E292E00C9476070895EE
:1002700063E271E08AEA91E00E943009882381F00C
:1002800084EA91E00E944F0989EC91E00E944A03C0
:100290008EE991E00E944F0984EB91E00C944A03AF
:1002A0000895CF92EF92FF920F931F93CC24C394A3
:1002B00084E6E82EF12C08E813E120E233E046E082
:1002C00067E089EC91E00E94C002C12C20E233E09B
:1002D0004BE06CE084EB91E00E94C00267E371E0C8
:1002E0008AEA91E00E94C30867E371E084EA91E042
:1002F0000E94C30867E371E08EE991E01F910F91BE
:10030000FF90EF90CF900C94C3080C94C50083E24B
:1003100092E00E943105892B09F446C083E292E005
:100320000E944A05682F8A30C9F40E943801109251
:10033000B1011092B00167E371E08AEA91E00E9496
:10034000D90867E371E084EA91E00E94D90867E385
:1003500071E08EE991E00E94D908D9CF8C3251F436
:100360008091B0019091B10101969093B101809379
:10037000B001CDCF8D3059F22091B0013091B10153
:100380002130310549F02230310549F0232B09F0A5
:10039000BECF8AEA91E005C084EA91E002C08EE90E
:1003A00091E00E941D09B3CF08951F920F920FB6DE
:1003B0000F9211242F933F934F935F936F937F93EB
:1003C0008F939F93AF93BF93EF93FF93E091DE01E1
:1003D000F091DF010995FF91EF91BF91AF919F914E
:1003E0008F917F916F915F914F913F912F910F90DE
:1003F0000FBE0F901F9018950F931F93CF93DF930D
:10040000EC01662359F00E94F50369837A838B839C
:100410009C83DF91CF911F910F9108950E94F50366
:1004200009811A812B813C81601B710B820B930B1C
:10043000623371058105910530F763E070E080E07B
:1004400090E00E942404EACF60E00C94FC01FC01DF
:1004500013AA14AA15AA16AA118212821382148250
:10046000411551056105710521F0CB01BA010C94CC
:1004700024040895FB01BA01A901DC01D296FC9382
:10048000EE93D19726E0CF010C9414061F93CF93DF
:10049000DF93EC01162F68E271E089A99AA90E9406
:1004A00069074AE050E0612F89A99AA90E944E0885
:1004B0006FE271E089A99AA90E94690762E370E07E
:1004C00080E090E0DF91CF911F910C9424041F9362
:1004D000CF93DF93EC01162F8D81882389F189A9B1
:1004E0009AA9DC01ED91FC910480F581E02D09953C
:1004F000892BA9F307C02637310519F128353105B5
:1005000009F41D8289A99AA9DC01ED91FC9104806E
:10051000F581E02D09951816190694F489A99AA970
:10052000DC01ED91FC910680F781E02D09959C019D
:10053000332723363105F9F6612FCE010E9446029A
:1005400083E6DF91CF911F9108950F931F93CF936F
:10055000DF931F92CDB7DEB78C01662349F081E0AF
:10056000F801858360E0C80149830E9467024981E0
:10057000F80145830F90DF91CF911F910F9108955E
:10058000CF92EF92FF920F931F93FC016083418300
:100590003383228315830483F782E682C086128622
:1005A000118614861386158616861786108A118A78
:1005B000128A138A148A1F910F91FF90EF90CF90A7
:1005C0000895CF93DF93EC0161E088810E94C2041B
:1005D00061E08981DF91CF910C94C204CF93DF93C6
:1005E000EC0161E089810E94FB0460E08981DF9178
:1005F000CF910C94FB0421E0FC013085631320E0D3
:10060000622FFC0180810C94FB04CF92DF92EF9269
:10061000FF920F931F93CF93DF93EC018B01612F18
:100620006095661F6627661F0E94FB02C80117FFC0
:1006300003C09195819591092C813D81BC012817BA
:10064000390708F4B90180E090E00E94280A6B01A4
:100650007C016E817F8180E090E00E94280A9B01EE
:10066000AC01C701B6010E94DE0A20E034E244E793
:1006700059E40E94C0096D877E878F87988B098710
:100680001A87DF91CF911F910F91FF90EF90DF902C
:10069000CF900895FC01748763870895CF93DF930B
:1006A000EC014B855C8529853A85CA01821B930B39
:1006B00097FF03C0919581959109893C910514F0AC
:1006C00088EC90E0421753071CF041E050E002C074
:1006D0004FEF5FEF849FB001859F700D949F700D69
:1006E0001124620F731FCE010E94050389859A852C
:1006F000DF91CF910895CF93DF93EC012D853E8557
:100700004F85588969897A898B899C890E945C09FF
:10071000698B7A8B8B8B9C8B20E030E040E85FE329
:100720000E94DA0A87FD13C0CE010E94EE0220E08B
:1007300030E040E85FE369897A898B899C890E946F
:100740005B09698B7A8B8B8B9C8B81E001C080E08D
:10075000DF91CF9108951F920F920FB60F9211243F
:100760002F933F938F939F93AF93BF9380911B02DF
:1007700090911C02A0911D02B0911E0230911A02AC
:1007800023E0230F2D3720F40196A11DB11D05C0D4
:1007900026E8230F0296A11DB11D20931A02809313
:1007A0001B0290931C02A0931D02B0931E02809125
:1007B0001F0290912002A0912102B0912202019685
:1007C000A11DB11D80931F0290932002A0932102CE
:1007D000B0932202BF91AF919F918F913F912F9142
:1007E0000F900FBE0F901F9018952FB7F89460913F
:1007F0001B0270911C0280911D0290911E022FBF5E
:1008000008953FB7F89480911F0290912002A09123
:100810002102B091220226B5A89B05C02F3F19F0F6
:100820000196A11DB11D3FBF6627782F892F9A2FF2
:10083000620F711D811D911D42E0660F771F881F99
:10084000991F4A95D1F708958F929F92AF92BF92C8
:10085000CF92DF92EF92FF926B017C010E94010424
:100860004B015C01C114D104E104F104F1F00E94D8
:100870005A090E940104681979098A099B09683E8E
:1008800073408105910570F321E0C21AD108E10897
:10089000F10888EE880E83E0981EA11CB11CC114DB
:1008A000D104E104F10429F7DDCFFF90EF90DF9050
:1008B000CF90BF90AF909F908F900895789484B51B
:1008C000826084BD84B5816084BD85B5826085BD4C
:1008D00085B5816085BDEEE6F0E080818160808332
:1008E000E1E8F0E010828081826080838081816015
:1008F0008083E0E8F0E0808181608083E1EBF0E0DC
:10090000808184608083E0EBF0E08081816080837F
:10091000EAE7F0E080818460808380818260808368
:100920008081816080838081806880831092C10093
:100930000895833081F028F4813099F08230A1F05D
:1009400008958730A9F08830B9F08430D1F48091CF
:1009500080008F7D03C0809180008F77809380001E
:10096000089584B58F7702C084B58F7D84BD0895C6
:100970008091B0008F7703C08091B0008F7D80930D
:10098000B0000895CF93DF9390E0FC01E458FF4F4F
:100990002491FC01E057FF4F8491882349F190E0B6
:1009A000880F991FFC01E255FF4FA591B4918C551A
:1009B0009F4FFC01C591D4919FB7611108C0F89475
:1009C0008C91209582238C93888182230AC0623087
:1009D00051F4F8948C91322F309583238C93888135
:1009E000822B888304C0F8948C91822B8C939FBFB8
:1009F000DF91CF9108950F931F93CF93DF931F92B1
:100A0000CDB7DEB7282F30E0F901E859FF4F8491C8
:100A1000F901E458FF4F1491F901E057FF4F049199
:100A20000023C9F0882321F069830E949904698119
:100A3000E02FF0E0EE0FFF1FEC55FF4FA591B491B2
:100A40009FB7F8948C91611103C01095812301C068
:100A5000812B8C939FBF0F90DF91CF911F910F91AE
:100A60000895FC01818D228D90E0805C9F4F821B58
:100A700091098F7399270895FC01918D828D9817A4
:100A800031F0828DE80FF11D858D90E008958FEF94
:100A90009FEF0895FC01918D828D981761F0828DF2
:100AA000DF01A80FB11D5D968C91928D9F5F9F73A2
:100AB000928F90E008958FEF9FEF08958EEC96E06F
:100AC000892B49F087E891E0892B29F00E94CE0616
:100AD00081110C9487010895FC01848DDF01A80F1A
:100AE000B11DA35ABF4F2C91848D90E001968F7356
:100AF0009927848FA689B7892C93A089B1898C9175
:100B000080648C93938D848D981306C00288F3893A
:100B1000E02D80818F7D80830895CF93DF93EC015A
:100B2000888D8823C9F0EA89FB89808185FD05C00D
:100B3000A889B9898C9186FD0FC00FB607FCF5CF47
:100B4000808185FFF2CFA889B9898C9185FFEDCF8F
:100B5000CE010E946C05E7CFDF91CF910895CF922F
:100B6000DF92FF920F931F93CF93DF931F92CDB726
:100B7000DEB76C0181E0D60158968C9358975B964E
:100B80009C915B975C968C915C97981307C05096EC
:100B9000ED91FC915197808185FD2EC0F601038D6A
:100BA00010E00F5F1F4F0F731127F02EF601848D99
:100BB000F81211C00FB607FCF9CFD6015096ED918F
:100BC000FC915197808185FFF1CFC60169830E9416
:100BD0006C056981EBCF838DE80FF11DE35AFF4F60
:100BE0006083D6015B960C935B975296ED91FC91D6
:100BF0005397808180620CC0D6015696ED91FC918E
:100C0000579760835096ED91FC9151978081806455
:100C1000808381E090E00F90DF91CF911F910F9141
:100C2000FF90DF90CF900895BF92CF92DF92EF9226
:100C3000FF92CF93DF93EC016A017B01B22EE8892A
:100C4000F98982E08083411581EE580761057105BD
:100C5000A1F060E079E08DE390E0A70196010E94A9
:100C6000410B215031094109510956954795379556
:100C70002795211580E1380798F0E889F9891082D5
:100C800060E874E88EE190E0A70196010E94410BB4
:100C900021503109410951095695479537952795B6
:100CA000EC85FD853083EE85FF852083188EEC89E9
:100CB000FD89B082EA89FB89808180618083EA892D
:100CC000FB89808188608083EA89FB8980818068D4
:100CD0008083EA89FB8980818F7D8083DF91CF913A
:100CE000FF90EF90DF90CF90BF9008951F920F92EA
:100CF0000FB60F9211242F938F939F93EF93FF932F
:100D0000E0913302F09134028081E0913902F09158
:100D10003A0282FD12C0908180913C028F5F8F73F6
:100D200020913D02821751F0E0913C02F0E0ED5D30
:100D3000FD4F958F80933C0201C08081FF91EF9120
:100D40009F918F912F910F900FBE0F901F9018952C
:100D50001F920F920FB60F9211242F933F934F9330
:100D60005F936F937F938F939F93AF93BF93EF9313
:100D7000FF9383E292E00E946C05FF91EF91BF9197
:100D8000AF919F918F917F916F915F914F913F9123
:100D90002F910F900FBE0F901F90189583E292E055
:100DA0000E94310521E0892B09F420E0822F08956B
:100DB000109226021092250288EE93E0A0E0B0E0A7
:100DC0008093270290932802A0932902B0932A02CD
:100DD00084E891E0909324028093230285EC90E0D4
:100DE0009093300280932F0284EC90E09093320233
:100DF0008093310280EC90E0909334028093330230
:100E000081EC90E0909336028093350282EC90E082
:100E1000909338028093370286EC90E090933A02E8
:100E20008093390210923C0210923D0210923E02D1
:100E300010923F02089508950E945E040E941B07CD
:100E40000E94D100CEE5D5E00E9437012097E1F362
:100E50000E945E05F9CFCF92DF92EF92FF920F933F
:100E60001F93CF93DF937C016A01EB0100E010E058
:100E70000C151D0571F06991D701ED91FC91019060
:100E8000F081E02DC7010995892B19F00F5F1F4FE5
:100E9000EFCFC801DF91CF911F910F91FF90EF909D
:100EA000DF90CF9008956115710581F0DB010D9001
:100EB0000020E9F7AD0141505109461B570BDC01F9
:100EC000ED91FC910280F381E02D099480E090E0A7
:100ED00008950C945307DC01ED91FC910190F08191
:100EE000E02D099465E371E00C9453070F931F9371
:100EF000CF93DF93EC010E9453078C01CE010E9437
:100F00007207800F911FDF91CF911F910F9108956C
:100F10008F929F92AF92BF92DF92EF92FF920F93C8
:100F20001F93CF93DF93CDB7DEB7A1970FB6F89499
:100F3000DEBF0FBECDBF7C01F42FD52ECB0119A291
:100F4000223008F42AE08E010F5D1F4F822E912C73
:100F5000A12CB12C6F2F7D2DA50194010E94410B76
:100F6000F22FD32ECA01015011096A3014F4E0E3C4
:100F700001C0E7E3E60FD801EC93232B242B252BAC
:100F800049F7B801C7010E945307A1960FB6F8941C
:100F9000DEBF0FBECDBFDF91CF911F910F91FF90AC
:100FA000EF90DF90BF90AF909F908F900895CF9279
:100FB000DF92EF92FF920F931F93CF93DF93EC0199
:100FC0006A017B012115310579F4E881F9810190ED
:100FD000F081E02D642FDF91CF911F910F91FF9051
:100FE000EF90DF90CF9009942A303105E9F477FF34
:100FF0001AC06DE20E946B078C0144275527BA0185
:101000004C195D096E097F092AE0CE010E9488070C
:10101000800F911FDF91CF911F910F91FF90EF9063
:10102000DF90CF9008952AE0B701A601CE01DF91AD
:10103000CF911F910F91FF90EF90DF90CF900C9484
:1010400088079A01AB01662757FD6095762F0C94AF
:10105000D7070F931F93CF93DF93EC019A01AB0156
:10106000662757FD6095762F0E94D7078C01CE0129
:101070000E947207800F911FDF91CF911F910F91F6
:1010800008952115310541F4DC01ED91FC910190A9
:10109000F081E02D642F09940C9488079A01462F63
:1010A00050E060E070E00C944108FC018081918187
:1010B0000C94010CCF93DF93EC0188819981009708
:1010C00011F00E94010C198218821D821C821B8261
:1010D0001A82DF91CF9108950F931F93CF93DF93DF
:1010E000EC018B016F5F7F4F888199810E94900C8A
:1010F000009731F0998388831B830A8381E001C0C4
:1011000080E0DF91CF911F910F910895CF93DF93EE
:10111000EC0188819981892B29F08A819B8186172E
:10112000970760F4CE010E946C08882341F08C81FF
:101130009D81892B19F4E881F981108281E0DF918A
:10114000CF910895EF92FF920F931F93CF93DF9368
:10115000EC017B018A01BA010E948608811104C05A
:10116000CE010E945A0807C01D830C83B7018881F5
:1011700099810E94930DCE01DF91CF911F910F9124
:10118000FF90EF900895FC01118210821382128269
:10119000158214826115710559F0FB010190002040
:1011A000E9F7AF0141505109461B570B0C94A208B7
:1011B0000895CF93DF93EC016115710561F0FB0198
:1011C00001900020E9F7AF0141505109461B570B30
:1011D0000E94A20802C00E945A08CE01DF91CF915E
:1011E0000895EF92FF920F931F93CF93DF93EC013B
:1011F0007B010C811D816115710511F480E016C021
:101200004115510591F0040F151FB8010E94860881
:101210008823A1F3288139818C819D81B701820FB8
:10122000931F0E94930D1D830C8381E0DF91CF916A
:101230001F910F91FF90EF900895CF93DF9300D00F
:10124000CDB7DEB769831A8241E050E0BE016F5F1F
:101250007F4F0E94F1080F900F90DF91CF9108957A
:10126000FC0124813581232B31F421E061157105C6
:10127000A1F0FB0108C0FC0180819181611571051D
:1012800031F421E0FC018081882339F005C00E94FF
:101290008A0D21E0892B09F020E0822F0895FC01BE
:1012A00080819181009711F00C945A0D60E070E0FC
:1012B000CB01089508955058BB27AA270ED040C1EE
:1012C00031D130F036D120F031F49F3F11F41EF4CB
:1012D00026C10EF4E095E7FB1CC1E92F42D180F353
:1012E000BA17620773078407950718F071F49EF523
:1012F0005AC10EF4E0950B2EBA2FA02D0B01B901A7
:1013000090010C01CA01A0011124FF27591B99F07B
:10131000593F50F4503E68F11A16F040A22F232F87
:10132000342F4427585FF3CF469537952795A795D7
:10133000F0405395C9F77EF41F16BA0B620B730B7E
:10134000840BBAF09150A1F0FF0FBB1F661F771FEF
:10135000881FC2F70EC0BA0F621F731F841F48F4A4
:10136000879577956795B795F7959E3F08F0B3CF2A
:101370009395880F08F09927EE0F97958795089514
:101380000CD0DEC0D6D040F0CDD030F021F45F3F9D
:1013900019F0BFC0511108C1C2C0E3D098F399231E
:1013A000C9F35523B1F3951B550BBB27AA27621729
:1013B0007307840738F09F5F5F4F220F331F441F6E
:1013C000AA1FA9F333D00E2E3AF0E0E830D09150A6
:1013D0005040E695001CCAF729D0FE2F27D0660F93
:1013E000771F881FBB1F261737074807AB07B0E8D2
:1013F00009F0BB0B802DBF01FF2793585F4F2AF0E8
:101400009E3F510568F085C0CFC05F3FECF3983E2A
:10141000DCF3869577956795B795F7959F5FC9F744
:10142000880F911D9695879597F90895E1E0660FCD
:10143000771F881FBB1F621773078407BA0720F046
:10144000621B730B840BBA0BEE1F88F7E0950895AF
:10145000E89409C097FB3EF490958095709561954E
:101460007F4F8F4F9F4F9923A9F0F92F96E9BB2704
:101470009395F695879577956795B795F111F8CF80
:10148000FAF4BB0F11F460FF1BC06F5F7F4F8F4FEB
:101490009F4F16C0882311F096E911C0772321F0E1
:1014A0009EE8872F762F05C0662371F096E8862F79
:1014B00070E060E02AF09A95660F771F881FDAF7D0
:1014C000880F9695879597F90895990F0008550FFD
:1014D000AA0BE0E8FEEF16161706E807F907C0F0BA
:1014E00012161306E407F50798F0621B730B840BC2
:1014F000950B39F40A2661F0232B242B252B21F49C
:1015000008950A2609F4A140A6958FEF811D811D3B
:10151000089597F99F6780E870E060E008959FEF75
:1015200080EC089500240A9416161706180609067A
:10153000089500240A941216130614060506089549
:10154000092E0394000C11F4882352F0BB0F40F4D1
:10155000BF2B11F460FF04C06F5F7F4F8F4F9F4F11
:10156000089557FD9058440F551F59F05F3F71F093
:101570004795880F97FB991F61F09F3F79F08795FA
:101580000895121613061406551FF2CF4695F1DF83
:1015900008C0161617061806991FF1CF8695710513
:1015A000610508940895E894BB2766277727CB0147
:1015B00097F908958ADF08F48FEF08950BD0C0CF14
:1015C000B1DF28F0B6DF18F0952309F0A2CFA7CF3E
:1015D0001124EACFC6DFA0F3959FD1F3950F50E019
:1015E000551F629FF001729FBB27F00DB11D639FD5
:1015F000AA27F00DB11DAA1F649F6627B00DA11D7B
:10160000661F829F2227B00DA11D621F739FB00D20
:10161000A11D621F839FA00D611D221F749F332790
:10162000A00D611D231F849F600D211D822F762F29
:101630006A2F11249F5750408AF0E1F088234AF026
:10164000EE0FFF1FBB1F661F771F881F9150504072
:10165000A9F79E3F510570F05CCFA6CF5F3FECF33A
:10166000983EDCF3869577956795B795F795E7955E
:101670009F5FC1F7FE2B880F911D9695879597F96F
:101680000895A1E21A2EAA1BBB1BFD010DC0AA1FC3
:10169000BB1FEE1FFF1FA217B307E407F50720F0DB
:1016A000A21BB30BE40BF50B661F771F881F991F56
:1016B0001A9469F760957095809590959B01AC019F
:1016C000BD01CF010895EE0FFF1F0590F491E02DAD
:1016D0000994CF93DF938230910510F482E090E07B
:1016E000E091C202F091C30220E030E0A0E0B0E05F
:1016F000309739F14081518148175907B8F04817A0
:10170000590771F482819381109729F013969C9365
:101710008E9312972CC09093C3028093C20227C06D
:101720002115310531F04217530718F0A901DB01EB
:1017300001C0EF019A01BD01DF010280F381E02DBC
:10174000D7CF21153105F9F0281B390B243031058D
:1017500080F48A819B816115710521F0FB019383DF
:10176000828304C09093C3028093C202FE0132962A
:1017700044C0FE01E20FF31F81939193225031097F
:10178000398328833AC02091C0023091C102232BB3
:1017900041F420910201309103013093C102209362
:1017A000C00220910001309101012115310541F461
:1017B0002DB73EB74091040150910501241B350B14
:1017C000E091C002F091C102E217F307A0F42E1BD2
:1017D0003F0B2817390778F0AC014E5F5F4F241795
:1017E000350748F04E0F5F1F5093C1024093C0026F
:1017F0008193919302C0E0E0F0E0CF01DF91CF91BF
:101800000895CF93DF93009709F487C0FC013297C6
:1018100013821282C091C202D091C302209781F438
:1018200020813181280F391F8091C0029091C1021F
:101830008217930779F5F093C102E093C0026DC05F
:10184000DE0120E030E0AE17BF0750F412964D9154
:101850005C9113979D014115510509F1DA01F3CF10
:10186000B383A28340815181840F951F8A179B0700
:1018700071F48D919C911197840F951F029691831D
:10188000808312968D919C91139793838283211567
:10189000310529F4F093C302E093C2023EC0D9019E
:1018A0001396FC93EE9312974D915D91A40FB51F83
:1018B000EA17FB0779F480819181840F951F0296C6
:1018C000D90111969C938E938281938113969C9358
:1018D0008E931297E0E0F0E08A819B81009719F0E7
:1018E000FE01EC01F9CFCE01029628813981820FE9
:1018F000931F2091C0023091C1022817390769F463
:10190000309729F41092C3021092C20202C01382CF
:101910001282D093C102C093C002DF91CF9108958B
:10192000A0E0B0E0E6E9FCE00C94B30DEC01CB01E3
:10193000209719F40E94690BB8C0FE01E60FF71F4B
:101940009E0122503109E217F30708F4ACC0D90117
:101950000D911C91119706171707B8F00530110566
:1019600008F49FC0A801445051094617570708F4CE
:1019700098C002501109061B170B019311936D9328
:101980007C93CF010E94010C8CC05B01A01AB10AAC
:101990004E01800E911EA091C202B091C302612C33
:1019A000712C60E070E0109709F449C0A815B905E2
:1019B000C9F5ED90FC901197670142E0C40ED11C6F
:1019C000CA14DB0478F147018A189B08640142E0DD
:1019D000C40ED11C1296BC9012971396AC91B5E030
:1019E000CB16D10440F0B282A38391828082D901C8
:1019F0008D939C9309C00E5F1F4F0E0D1F1DF901A3
:101A000011830083EB2DFA2F6115710531F0DB0195
:101A10001396FC93EE93129744C0F093C302E093A5
:101A2000C2023FC06D917C9111976616770608F44B
:101A30003B01BD0112960D90BC91A02DB4CF6091D9
:101A4000C0027091C10268157905E9F4681679063B
:101A5000D0F440910001509101014115510541F42C
:101A60004DB75EB76091040170910501461B570B9D
:101A7000E417F507C0F4F093C102E093C002F90146
:101A8000918380830EC00E94690B7C01009759F0FE
:101A9000A801BE010E94810DCE010E94010CC70168
:101AA00004C0CE0102C080E090E0CDB7DEB7EEE02A
:101AB0000C94CF0D1F93FC0199278827BC01E89453
:101AC00011911032E9F3193010F01E30C8F31B32B7
:101AD00051F01D3249F4689406C00E949A0D610FBE
:101AE000711D811D911D119110531A30B0F33EF4F8
:101AF00090958095709561957F4F8F4F9F4F1F9167
:101B00000895FB01DC0102C001900D92415050404C
:101B1000D8F70895FB01DC018D9101908019011027
:101B2000D9F3990B0895FB01DC0101900D9200207F
:101B3000E1F70895592F482F372F262F660F771F6B
:101B4000881F991F660F771F881F991F620F731FC9
:101B5000841F951F660F771F881F991F08952F9266
:101B60003F924F925F926F927F928F929F92AF922D
:101B7000BF92CF92DF92EF92FF920F931F93CF937A
:101B8000DF93CDB7DEB7CA1BDB0B0FB6F894DEBF11
:101B90000FBECDBF09942A88398848885F846E8437
:101BA0007D848C849B84AA84B984C884DF80EE8081
:101BB000FD800C811B81AA81B981CE0FD11D0FB68A
:101BC000F894DEBF0FBECDBFED01089510E0CCEB61
:101BD000D0E004C0FE010E94650B2296CE3BD107E7
:061BE000C9F7F894FFCFE5
:101BE6000000C4028000535045442C00564D44501A
:101BF600565F317C315F564D4450560D0A00494EB2
:101C06004954005341434300564D4450435F005FDF
:101C1600564D4450430D0A004572726F723A204188
:101C26007474656D707420746F2073657420612000
:101C3600726561642D6F6E6C79207661726961627E
:101C46006C65206F72206461746120747970652000
:101C56006E6F7420737570706F727465640D0A0010
:101C660000000000AF052B0731054A053C058D0530
:0E1C76006E616E00696E66006F7666002E006D
:00000001FF
