:100000000C945D000C947A000C947A000C947A00A5
:100010000C947A000C947A000C947A000C947A0078
:100020000C947A000C947A000C947A000C947A0068
:100030000C947A000C9413010C947A000C947A00BE
:100040000C941D020C947A000C947A000C947A00A3
:100050000C947A000C947A000C947A000C947A0038
:100060000C947A000C947A00000000080002010051
:100070000003040700000000000000000102040863
:100080001020408001020408102001020408102002
:10009000040404040404040402020202020203032E
:1000A0000303030300000000250028002B000000CC
:1000B0000000240027002A00F00011241FBECFEF0B
:1000C000D8E0DEBFCDBF21E0A0E0B1E001C01D92CD
:1000D000AA33B207E1F710E0CAEBD0E004C02297E0
:1000E000FE010E947E05C83BD107C9F70E94860326
:1000F0000C9482050C940000809100019091010104
:100100009C012F5F3F4F3093010120930001883EF7
:10011000934060F087E191E00E94C80182E091E0A5
:100120000E94C801109201011092000187E191E044
:100130000E94ED0182E091E00C94ED0187E191E0F5
:100140000E945B0182E091E00E945B01E1E8F0E047
:1001500080E1808310928000A6E8B0E082E19AE717
:1001600011969C938E9384E1808321E020932E014D
:1001700080E293E09093300180932F0111969C933D
:100180008E9381E180838CE790E090932D018093A2
:100190002C0120936F00089564EC79E087E191E0F1
:1001A0000E94C40168EB7BE082E091E00E94C40100
:1001B0006CED75E080E090E00E948A0268EB7BE0E5
:1001C00087E191E00E94C40164EC79E082E091E073
:1001D0000E94C4016CED75E080E090E00C948A020E
:1001E000CF92EF92FF920F931F93CC24C39484E697
:1001F000E82EF12C08E813E120E233E046E067E066
:1002000087E191E00E943A01C12C20E233E04BE00B
:100210006CE082E091E00E943A011F910F91FF9003
:10022000EF90CF9008951F920F920FB60F92112466
:100230002F933F934F935F936F937F938F939F93EE
:10024000AF93BF93EF93FF93E0912C01F0912D01B9
:100250000995FF91EF91BF91AF919F918F917F9100
:100260006F915F914F913F912F910F900FBE0F9023
:100270001F901895CF92EF92FF920F931F93FC015E
:10028000608341833383228315830483F782E6826C
:10029000C0861286118614861386158616861786E2
:1002A000108A118A128A138A148A1F910F91FF9063
:1002B000EF90CF900895CF93DF93EC0161E08881B8
:1002C0000E94160361E08981DF91CF910C9416039F
:1002D000CF93DF93EC0161E089810E944F0360E0DE
:1002E0008981DF91CF910C944F0321E0FC0130858F
:1002F000631320E0622FFC0180810C944F03CF92A6
:10030000DF92EF92FF920F931F93CF93DF93EC0155
:100310008B01612F6095661F6627661F0E9475011D
:10032000C80117FF03C09195819591092C813D81EA
:10033000BC012817390708F4B90180E090E00E9459
:1003400063046B017C016E817F8180E090E00E94FC
:1003500063049B01AC01C701B6010E94F50420E0D3
:1003600034E244E759E40E94FB036D877E878F8760
:10037000988B09871A87DF91CF911F910F91FF907A
:10038000EF90DF90CF900895FC0174876387089504
:10039000FC0163857485418552859B01241B350BC7
:1003A00037FF03C0319521953109293C310514F0FF
:1003B00028EC30E0641775071CF0E1E0F0E002C0C3
:1003C000EFEFFFEF2E9FB0012F9F700D3E9F700D3E
:1003D0001124640F751F0C947F01CF93DF93EC0100
:1003E0002D853E854F85588969897A898B899C89B5
:1003F0000E949703698B7A8B8B8B9C8B20E030E07B
:1004000040E85FE30E94F10487FD13C0CE010E9423
:10041000680120E030E040E85FE369897A898B89F0
:100420009C890E949603698B7A8B8B8B9C8B81E0D5
:1004300001C080E0DF91CF9108951F920F920FB617
:100440000F9211242F933F938F939F93AF93BF935A
:100450008091320190913301A0913401B091350126
:100460003091310123E0230F2D3720F40196A11D97
:10047000B11D05C026E8230F0296A11DB11D2093D2
:1004800031018093320190933301A0933401B093F2
:1004900035018091360190913701A0913801B091DA
:1004A00039010196A11DB11D80933601909337014A
:1004B000A0933801B0933901BF91AF919F918F9173
:1004C0003F912F910F900FBE0F901F9018953FB73F
:1004D000F8948091360190913701A0913801B09144
:1004E000390126B5A89B05C02F3F19F00196A11D23
:1004F000B11D3FBF6627782F892F9A2F620F711D7C
:10050000811D911D42E0660F771F881F991F4A9534
:10051000D1F70895CF92DF92EF92FF92CF93DF93BE
:100520006B017C010E946702EB01C114D104E1045C
:10053000F10489F00E9495030E9467026C1B7D0BF9
:10054000683E734090F381E0C81AD108E108F108D1
:10055000C851DC4FEACFDF91CF91FF90EF90DF9051
:10056000CF900895789484B5826084BD84B581600D
:1005700084BD85B5826085BD85B5816085BDEEE6AB
:10058000F0E0808181608083E1E8F0E0108280818A
:1005900082608083808181608083E0E8F0E08081F8
:1005A00081608083E1EBF0E0808184608083E0EB18
:1005B000F0E0808181608083EAE7F0E08081846000
:1005C000808380818260808380818160808380815C
:1005D000806880831092C1000895833081F028F4F0
:1005E000813099F08230A1F008958730A9F08830E9
:1005F000B9F08430D1F4809180008F7D03C0809168
:1006000080008F7780938000089584B58F7702C033
:1006100084B58F7D84BD08958091B0008F7703C02D
:100620008091B0008F7D8093B0000895CF93DF93C9
:1006300090E0FC01E458FF4F2491FC01E057FF4F8C
:100640008491882349F190E0880F991FFC01E255BD
:10065000FF4FA591B4918C559F4FFC01C591D4914A
:100660009FB7611108C0F8948C91209582238C93D8
:10067000888182230AC0623051F4F8948C91322F21
:10068000309583238C938881822B888304C0F894CF
:100690008C91822B8C939FBFDF91CF9108950F9304
:1006A0001F93CF93DF931F92CDB7DEB7282F30E093
:1006B000F901E859FF4F8491F901E458FF4F149173
:1006C000F901E057FF4F04910023C9F0882321F07E
:1006D00069830E94ED026981E02FF0E0EE0FFF1FB9
:1006E000EC55FF4FA591B4919FB7F8948C9161118F
:1006F00003C01095812301C0812B8C939FBF0F9065
:10070000DF91CF911F910F91089508950E94B20239
:100710000E9485030E949E00C0E0D0E00E94CC00B1
:100720002097E1F30E940000F9CF08955058BB27AD
:10073000AA270ED01CC10DD130F012D120F031F417
:100740009F3F11F41EF402C10EF4E095E7FBF8C0E0
:10075000E92F1ED180F3BA17620773078407950744
:1007600018F071F49EF536C10EF4E0950B2EBA2FF9
:10077000A02D0B01B90190010C01CA01A0011124A7
:10078000FF27591B99F0593F50F4503E68F11A1653
:10079000F040A22F232F342F4427585FF3CF4695E4
:1007A00037952795A795F0405395C9F77EF41F1606
:1007B000BA0B620B730B840BBAF09150A1F0FF0FD0
:1007C000BB1F661F771F881FC2F70EC0BA0F621FBC
:1007D000731F841F48F4879577956795B795F795AC
:1007E0009E3F08F0B3CF9395880F08F09927EE0F3E
:1007F0009795879508950CD0BAC0B2D040F0A9D093
:1008000030F021F45F3F19F09BC05111E4C09EC04D
:10081000BFD098F39923C9F35523B1F3951B550B1A
:10082000BB27AA2762177307840738F09F5F5F4FC3
:10083000220F331F441FAA1FA9F333D00E2E3AF004
:10084000E0E830D091505040E695001CCAF729D01E
:10085000FE2F27D0660F771F881FBB1F261737076D
:100860004807AB07B0E809F0BB0B802DBF01FF279D
:1008700093585F4F2AF09E3F510568F061C0ABC0AE
:100880005F3FECF3983EDCF3869577956795B795D7
:10089000F7959F5FC9F7880F911D9695879597F9F2
:1008A0000895E1E0660F771F881FBB1F621773076B
:1008B0008407BA0720F0621B730B840BBA0BEE1F80
:1008C00088F7E0950895E89409C097FB3EF4909569
:1008D0008095709561957F4F8F4F9F4F9923A9F019
:1008E000F92F96E9BB279395F695879577956795A8
:1008F000B795F111F8CFFAF4BB0F11F460FF1BC0EC
:100900006F5F7F4F8F4F9F4F16C0882311F096E97E
:1009100011C0772321F09EE8872F762F05C066232C
:1009200071F096E8862F70E060E02AF09A95660FE5
:10093000771F881FDAF7880F9695879597F908959E
:1009400097F99F6780E870E060E008959FEF80EC82
:10095000089500240A941616170618060906089525
:1009600000240A9412161306140605060895092E8B
:100970000394000C11F4882352F0BB0F40F4BF2BFA
:1009800011F460FF04C06F5F7F4F8F4F9F4F08953A
:1009900057FD9058440F551F59F05F3F71F0479530
:1009A000880F97FB991F61F09F3F79F08795089515
:1009B000121613061406551FF2CF4695F1DF08C034
:1009C000161617061806991FF1CF86957105610551
:1009D00008940895E894BB2766277727CB0197F9F9
:1009E000089566D008F48FEF08950BD0C0CFB1DF23
:1009F00028F0B6DF18F0952309F0A2CFA7CF112475
:100A0000EACFC6DFA0F3959FD1F3950F50E0551FB5
:100A1000629FF001729FBB27F00DB11D639FAA2753
:100A2000F00DB11DAA1F649F6627B00DA11D661FA2
:100A3000829F2227B00DA11D621F739FB00DA11DC3
:100A4000621F839FA00D611D221F749F3327A00D7D
:100A5000611D231F849F600D211D822F762F6A2F19
:100A600011249F5750408AF0E1F088234AF0EE0F9E
:100A7000FF1FBB1F661F771F881F91505040A9F7AB
:100A80009E3F510570F05CCFA6CF5F3FECF3983EE0
:100A9000DCF3869577956795B795F795E7959F5F12
:100AA000C1F7FE2B880F911D9695879597F90895AC
:100AB000990F0008550FAA0BE0E8FEEF161617066F
:100AC000E807F907C0F012161306E407F50798F0D7
:100AD000621B730B840B950B39F40A2661F0232BF0
:100AE000242B252B21F408950A2609F4A140A6956C
:100AF0008FEF811D811D0895EE0FFF1F0590F4916A
:080B0000E02D0994F894FFCFE9
:00000001FF
